ARM GAS  C:\Users\Sil\AppData\Local\Temp\ccslyIQA.s 			page 1


   1              		.syntax unified
   2              		.cpu cortex-m0
   3              		.fpu softvfp
   4              		.eabi_attribute 20, 1
   5              		.eabi_attribute 21, 1
   6              		.eabi_attribute 23, 3
   7              		.eabi_attribute 24, 1
   8              		.eabi_attribute 25, 1
   9              		.eabi_attribute 26, 1
  10              		.eabi_attribute 30, 1
  11              		.eabi_attribute 34, 0
  12              		.eabi_attribute 18, 4
  13              		.thumb
  14              		.syntax unified
  15              		.file	"cyfitter_cfg.c"
  16              		.text
  17              	.Ltext0:
  18              		.cfi_sections	.debug_frame
  19              		.section	.text.cfg_write_bytes32,"ax",%progbits
  20              		.align	2
  21              		.code	16
  22              		.thumb_func
  23              		.type	cfg_write_bytes32, %function
  24              	cfg_write_bytes32:
  25              	.LFB3:
  26              		.file 1 "Generated_Source\\PSoC4\\cyfitter_cfg.c"
   1:Generated_Source\PSoC4/cyfitter_cfg.c **** 
   2:Generated_Source\PSoC4/cyfitter_cfg.c **** /*******************************************************************************
   3:Generated_Source\PSoC4/cyfitter_cfg.c **** * File Name: cyfitter_cfg.c
   4:Generated_Source\PSoC4/cyfitter_cfg.c **** * 
   5:Generated_Source\PSoC4/cyfitter_cfg.c **** * PSoC Creator  4.2
   6:Generated_Source\PSoC4/cyfitter_cfg.c **** *
   7:Generated_Source\PSoC4/cyfitter_cfg.c **** * Description:
   8:Generated_Source\PSoC4/cyfitter_cfg.c **** * This file contains device initialization code.
   9:Generated_Source\PSoC4/cyfitter_cfg.c **** * Except for the user defined sections in CyClockStartupError(), this file should not be modified.
  10:Generated_Source\PSoC4/cyfitter_cfg.c **** * This file is automatically generated by PSoC Creator.
  11:Generated_Source\PSoC4/cyfitter_cfg.c **** *
  12:Generated_Source\PSoC4/cyfitter_cfg.c **** ********************************************************************************
  13:Generated_Source\PSoC4/cyfitter_cfg.c **** * Copyright (c) 2007-2018 Cypress Semiconductor.  All rights reserved.
  14:Generated_Source\PSoC4/cyfitter_cfg.c **** * You may use this file only in accordance with the license, terms, conditions, 
  15:Generated_Source\PSoC4/cyfitter_cfg.c **** * disclaimers, and limitations in the end user license agreement accompanying 
  16:Generated_Source\PSoC4/cyfitter_cfg.c **** * the software package with which this file was provided.
  17:Generated_Source\PSoC4/cyfitter_cfg.c **** ********************************************************************************/
  18:Generated_Source\PSoC4/cyfitter_cfg.c **** 
  19:Generated_Source\PSoC4/cyfitter_cfg.c **** #include <string.h>
  20:Generated_Source\PSoC4/cyfitter_cfg.c **** #include "cytypes.h"
  21:Generated_Source\PSoC4/cyfitter_cfg.c **** #include "cydevice_trm.h"
  22:Generated_Source\PSoC4/cyfitter_cfg.c **** #include "cyfitter.h"
  23:Generated_Source\PSoC4/cyfitter_cfg.c **** #include "CyLib.h"
  24:Generated_Source\PSoC4/cyfitter_cfg.c **** #include "CyLFClk.h"
  25:Generated_Source\PSoC4/cyfitter_cfg.c **** #include "cyfitter_cfg.h"
  26:Generated_Source\PSoC4/cyfitter_cfg.c **** #include "cyapicallbacks.h"
  27:Generated_Source\PSoC4/cyfitter_cfg.c **** 
  28:Generated_Source\PSoC4/cyfitter_cfg.c **** 
  29:Generated_Source\PSoC4/cyfitter_cfg.c **** #if defined(__GNUC__) || defined(__ARMCC_VERSION)
  30:Generated_Source\PSoC4/cyfitter_cfg.c ****     #define CYPACKED 
  31:Generated_Source\PSoC4/cyfitter_cfg.c ****     #define CYPACKED_ATTR __attribute__ ((packed))
ARM GAS  C:\Users\Sil\AppData\Local\Temp\ccslyIQA.s 			page 2


  32:Generated_Source\PSoC4/cyfitter_cfg.c ****     #define CYALIGNED __attribute__ ((aligned))
  33:Generated_Source\PSoC4/cyfitter_cfg.c ****     #define CY_CFG_UNUSED __attribute__ ((unused))
  34:Generated_Source\PSoC4/cyfitter_cfg.c ****     #ifndef CY_CFG_SECTION
  35:Generated_Source\PSoC4/cyfitter_cfg.c ****         #define CY_CFG_SECTION __attribute__ ((section(".psocinit")))
  36:Generated_Source\PSoC4/cyfitter_cfg.c ****     #endif
  37:Generated_Source\PSoC4/cyfitter_cfg.c ****     
  38:Generated_Source\PSoC4/cyfitter_cfg.c ****     #if defined(__ARMCC_VERSION)
  39:Generated_Source\PSoC4/cyfitter_cfg.c ****         #define CY_CFG_MEMORY_BARRIER() __memory_changed()
  40:Generated_Source\PSoC4/cyfitter_cfg.c ****     #else
  41:Generated_Source\PSoC4/cyfitter_cfg.c ****         #define CY_CFG_MEMORY_BARRIER() __sync_synchronize()
  42:Generated_Source\PSoC4/cyfitter_cfg.c ****     #endif
  43:Generated_Source\PSoC4/cyfitter_cfg.c ****     
  44:Generated_Source\PSoC4/cyfitter_cfg.c **** #elif defined(__ICCARM__)
  45:Generated_Source\PSoC4/cyfitter_cfg.c ****     #include <intrinsics.h>
  46:Generated_Source\PSoC4/cyfitter_cfg.c **** 
  47:Generated_Source\PSoC4/cyfitter_cfg.c ****     #define CYPACKED __packed
  48:Generated_Source\PSoC4/cyfitter_cfg.c ****     #define CYPACKED_ATTR 
  49:Generated_Source\PSoC4/cyfitter_cfg.c ****     #define CYALIGNED _Pragma("data_alignment=4")
  50:Generated_Source\PSoC4/cyfitter_cfg.c ****     #define CY_CFG_UNUSED _Pragma("diag_suppress=Pe177")
  51:Generated_Source\PSoC4/cyfitter_cfg.c ****     #define CY_CFG_SECTION _Pragma("location=\".psocinit\"")
  52:Generated_Source\PSoC4/cyfitter_cfg.c ****     
  53:Generated_Source\PSoC4/cyfitter_cfg.c ****     #define CY_CFG_MEMORY_BARRIER() __DMB()
  54:Generated_Source\PSoC4/cyfitter_cfg.c ****     
  55:Generated_Source\PSoC4/cyfitter_cfg.c **** #else
  56:Generated_Source\PSoC4/cyfitter_cfg.c ****     #error Unsupported toolchain
  57:Generated_Source\PSoC4/cyfitter_cfg.c **** #endif
  58:Generated_Source\PSoC4/cyfitter_cfg.c **** 
  59:Generated_Source\PSoC4/cyfitter_cfg.c **** #ifndef CYCODE
  60:Generated_Source\PSoC4/cyfitter_cfg.c ****     #define CYCODE
  61:Generated_Source\PSoC4/cyfitter_cfg.c **** #endif
  62:Generated_Source\PSoC4/cyfitter_cfg.c **** #ifndef CYDATA
  63:Generated_Source\PSoC4/cyfitter_cfg.c ****     #define CYDATA
  64:Generated_Source\PSoC4/cyfitter_cfg.c **** #endif
  65:Generated_Source\PSoC4/cyfitter_cfg.c **** #ifndef CYFAR
  66:Generated_Source\PSoC4/cyfitter_cfg.c ****     #define CYFAR
  67:Generated_Source\PSoC4/cyfitter_cfg.c **** #endif
  68:Generated_Source\PSoC4/cyfitter_cfg.c **** #ifndef CYXDATA
  69:Generated_Source\PSoC4/cyfitter_cfg.c ****     #define CYXDATA
  70:Generated_Source\PSoC4/cyfitter_cfg.c **** #endif
  71:Generated_Source\PSoC4/cyfitter_cfg.c **** 
  72:Generated_Source\PSoC4/cyfitter_cfg.c **** 
  73:Generated_Source\PSoC4/cyfitter_cfg.c **** CY_CFG_UNUSED
  74:Generated_Source\PSoC4/cyfitter_cfg.c **** static void CYMEMZERO(void *s, size_t n);
  75:Generated_Source\PSoC4/cyfitter_cfg.c **** CY_CFG_UNUSED
  76:Generated_Source\PSoC4/cyfitter_cfg.c **** static void CYMEMZERO(void *s, size_t n)
  77:Generated_Source\PSoC4/cyfitter_cfg.c **** {
  78:Generated_Source\PSoC4/cyfitter_cfg.c **** 	(void)memset(s, 0, n);
  79:Generated_Source\PSoC4/cyfitter_cfg.c **** }
  80:Generated_Source\PSoC4/cyfitter_cfg.c **** CY_CFG_UNUSED
  81:Generated_Source\PSoC4/cyfitter_cfg.c **** static void CYCONFIGCPY(void *dest, const void *src, size_t n);
  82:Generated_Source\PSoC4/cyfitter_cfg.c **** CY_CFG_UNUSED
  83:Generated_Source\PSoC4/cyfitter_cfg.c **** static void CYCONFIGCPY(void *dest, const void *src, size_t n)
  84:Generated_Source\PSoC4/cyfitter_cfg.c **** {
  85:Generated_Source\PSoC4/cyfitter_cfg.c **** 	(void)memcpy(dest, src, n);
  86:Generated_Source\PSoC4/cyfitter_cfg.c **** }
  87:Generated_Source\PSoC4/cyfitter_cfg.c **** CY_CFG_UNUSED
  88:Generated_Source\PSoC4/cyfitter_cfg.c **** static void CYCONFIGCPYCODE(void *dest, const void *src, size_t n);
ARM GAS  C:\Users\Sil\AppData\Local\Temp\ccslyIQA.s 			page 3


  89:Generated_Source\PSoC4/cyfitter_cfg.c **** CY_CFG_UNUSED
  90:Generated_Source\PSoC4/cyfitter_cfg.c **** static void CYCONFIGCPYCODE(void *dest, const void *src, size_t n)
  91:Generated_Source\PSoC4/cyfitter_cfg.c **** {
  92:Generated_Source\PSoC4/cyfitter_cfg.c **** 	(void)memcpy(dest, src, n);
  93:Generated_Source\PSoC4/cyfitter_cfg.c **** }
  94:Generated_Source\PSoC4/cyfitter_cfg.c **** 
  95:Generated_Source\PSoC4/cyfitter_cfg.c **** 
  96:Generated_Source\PSoC4/cyfitter_cfg.c **** 
  97:Generated_Source\PSoC4/cyfitter_cfg.c **** 
  98:Generated_Source\PSoC4/cyfitter_cfg.c **** /* Clock startup error codes                                                   */
  99:Generated_Source\PSoC4/cyfitter_cfg.c **** #define CYCLOCKSTART_NO_ERROR    0u
 100:Generated_Source\PSoC4/cyfitter_cfg.c **** #define CYCLOCKSTART_XTAL_ERROR  1u
 101:Generated_Source\PSoC4/cyfitter_cfg.c **** #define CYCLOCKSTART_32KHZ_ERROR 2u
 102:Generated_Source\PSoC4/cyfitter_cfg.c **** #define CYCLOCKSTART_PLL_ERROR   3u
 103:Generated_Source\PSoC4/cyfitter_cfg.c **** #define CYCLOCKSTART_FLL_ERROR   4u
 104:Generated_Source\PSoC4/cyfitter_cfg.c **** #define CYCLOCKSTART_WCO_ERROR   5u
 105:Generated_Source\PSoC4/cyfitter_cfg.c **** 
 106:Generated_Source\PSoC4/cyfitter_cfg.c **** 
 107:Generated_Source\PSoC4/cyfitter_cfg.c **** #ifdef CY_NEED_CYCLOCKSTARTUPERROR
 108:Generated_Source\PSoC4/cyfitter_cfg.c **** /*******************************************************************************
 109:Generated_Source\PSoC4/cyfitter_cfg.c **** * Function Name: CyClockStartupError
 110:Generated_Source\PSoC4/cyfitter_cfg.c **** ********************************************************************************
 111:Generated_Source\PSoC4/cyfitter_cfg.c **** * Summary:
 112:Generated_Source\PSoC4/cyfitter_cfg.c **** *  If an error is encountered during clock configuration (crystal startup error,
 113:Generated_Source\PSoC4/cyfitter_cfg.c **** *  PLL lock error, etc.), the system will end up here.  Unless reimplemented by
 114:Generated_Source\PSoC4/cyfitter_cfg.c **** *  the customer, this function will stop in an infinite loop.
 115:Generated_Source\PSoC4/cyfitter_cfg.c **** *
 116:Generated_Source\PSoC4/cyfitter_cfg.c **** * Parameters:
 117:Generated_Source\PSoC4/cyfitter_cfg.c **** *   void
 118:Generated_Source\PSoC4/cyfitter_cfg.c **** *
 119:Generated_Source\PSoC4/cyfitter_cfg.c **** * Return:
 120:Generated_Source\PSoC4/cyfitter_cfg.c **** *   void
 121:Generated_Source\PSoC4/cyfitter_cfg.c **** *
 122:Generated_Source\PSoC4/cyfitter_cfg.c **** *******************************************************************************/
 123:Generated_Source\PSoC4/cyfitter_cfg.c **** CY_CFG_UNUSED
 124:Generated_Source\PSoC4/cyfitter_cfg.c **** static void CyClockStartupError(uint8 errorCode);
 125:Generated_Source\PSoC4/cyfitter_cfg.c **** CY_CFG_UNUSED
 126:Generated_Source\PSoC4/cyfitter_cfg.c **** static void CyClockStartupError(uint8 errorCode)
 127:Generated_Source\PSoC4/cyfitter_cfg.c **** {
 128:Generated_Source\PSoC4/cyfitter_cfg.c ****     /* To remove the compiler warning if errorCode not used.                */
 129:Generated_Source\PSoC4/cyfitter_cfg.c ****     errorCode = errorCode;
 130:Generated_Source\PSoC4/cyfitter_cfg.c **** 
 131:Generated_Source\PSoC4/cyfitter_cfg.c ****     /* If we have a clock startup error (bad MHz crystal, PLL lock, etc.),  */
 132:Generated_Source\PSoC4/cyfitter_cfg.c ****     /* we will end up here to allow the customer to implement something to  */
 133:Generated_Source\PSoC4/cyfitter_cfg.c ****     /* deal with the clock condition.                                       */
 134:Generated_Source\PSoC4/cyfitter_cfg.c **** 
 135:Generated_Source\PSoC4/cyfitter_cfg.c **** #ifdef CY_CFG_CLOCK_STARTUP_ERROR_CALLBACK
 136:Generated_Source\PSoC4/cyfitter_cfg.c ****     CY_CFG_Clock_Startup_ErrorCallback();
 137:Generated_Source\PSoC4/cyfitter_cfg.c **** #else
 138:Generated_Source\PSoC4/cyfitter_cfg.c ****     /*  If not using CY_CFG_CLOCK_STARTUP_ERROR_CALLBACK, place your clock startup code here. */
 139:Generated_Source\PSoC4/cyfitter_cfg.c ****     /* `#START CyClockStartupError` */
 140:Generated_Source\PSoC4/cyfitter_cfg.c **** 
 141:Generated_Source\PSoC4/cyfitter_cfg.c **** 
 142:Generated_Source\PSoC4/cyfitter_cfg.c **** 
 143:Generated_Source\PSoC4/cyfitter_cfg.c ****     /* `#END` */
 144:Generated_Source\PSoC4/cyfitter_cfg.c **** 
 145:Generated_Source\PSoC4/cyfitter_cfg.c ****     while(1) {}
ARM GAS  C:\Users\Sil\AppData\Local\Temp\ccslyIQA.s 			page 4


 146:Generated_Source\PSoC4/cyfitter_cfg.c **** #endif /* CY_CFG_CLOCK_STARTUP_ERROR_CALLBACK */
 147:Generated_Source\PSoC4/cyfitter_cfg.c **** }
 148:Generated_Source\PSoC4/cyfitter_cfg.c **** #endif
 149:Generated_Source\PSoC4/cyfitter_cfg.c **** 
 150:Generated_Source\PSoC4/cyfitter_cfg.c **** #define CY_CFG_BASE_ADDR_COUNT 5u
 151:Generated_Source\PSoC4/cyfitter_cfg.c **** CYPACKED typedef struct
 152:Generated_Source\PSoC4/cyfitter_cfg.c **** {
 153:Generated_Source\PSoC4/cyfitter_cfg.c **** 	uint8 offset;
 154:Generated_Source\PSoC4/cyfitter_cfg.c **** 	uint8 value;
 155:Generated_Source\PSoC4/cyfitter_cfg.c **** } CYPACKED_ATTR cy_cfg_addrvalue_t;
 156:Generated_Source\PSoC4/cyfitter_cfg.c **** 
 157:Generated_Source\PSoC4/cyfitter_cfg.c **** 
 158:Generated_Source\PSoC4/cyfitter_cfg.c **** 
 159:Generated_Source\PSoC4/cyfitter_cfg.c **** /*******************************************************************************
 160:Generated_Source\PSoC4/cyfitter_cfg.c **** * Function Name: cfg_write_bytes32
 161:Generated_Source\PSoC4/cyfitter_cfg.c **** ********************************************************************************
 162:Generated_Source\PSoC4/cyfitter_cfg.c **** * Summary:
 163:Generated_Source\PSoC4/cyfitter_cfg.c **** *  This function is used for setting up the chip configuration areas that
 164:Generated_Source\PSoC4/cyfitter_cfg.c **** *  contain relatively sparse data.
 165:Generated_Source\PSoC4/cyfitter_cfg.c **** *
 166:Generated_Source\PSoC4/cyfitter_cfg.c **** * Parameters:
 167:Generated_Source\PSoC4/cyfitter_cfg.c **** *   void
 168:Generated_Source\PSoC4/cyfitter_cfg.c **** *
 169:Generated_Source\PSoC4/cyfitter_cfg.c **** * Return:
 170:Generated_Source\PSoC4/cyfitter_cfg.c **** *   void
 171:Generated_Source\PSoC4/cyfitter_cfg.c **** *
 172:Generated_Source\PSoC4/cyfitter_cfg.c **** *******************************************************************************/
 173:Generated_Source\PSoC4/cyfitter_cfg.c **** static void cfg_write_bytes32(const uint32 addr_table[], const cy_cfg_addrvalue_t data_table[]);
 174:Generated_Source\PSoC4/cyfitter_cfg.c **** static void cfg_write_bytes32(const uint32 addr_table[], const cy_cfg_addrvalue_t data_table[])
 175:Generated_Source\PSoC4/cyfitter_cfg.c **** {
  27              		.loc 1 175 0
  28              		.cfi_startproc
  29              		@ args = 0, pretend = 0, frame = 0
  30              		@ frame_needed = 0, uses_anonymous_args = 0
  31              	.LVL0:
  32 0000 F0B5     		push	{r4, r5, r6, r7, lr}
  33              		.cfi_def_cfa_offset 20
  34              		.cfi_offset 4, -20
  35              		.cfi_offset 5, -16
  36              		.cfi_offset 6, -12
  37              		.cfi_offset 7, -8
  38              		.cfi_offset 14, -4
  39              	.LVL1:
 176:Generated_Source\PSoC4/cyfitter_cfg.c **** 	/* For 32-bit little-endian architectures */
 177:Generated_Source\PSoC4/cyfitter_cfg.c **** 	uint32 i, j = 0u;
  40              		.loc 1 177 0
  41 0002 0025     		movs	r5, #0
 178:Generated_Source\PSoC4/cyfitter_cfg.c **** 	for (i = 0u; i < CY_CFG_BASE_ADDR_COUNT; i++)
  42              		.loc 1 178 0
  43 0004 0027     		movs	r7, #0
  44 0006 11E0     		b	.L2
  45              	.LVL2:
  46              	.L5:
  47              	.LBB2:
 179:Generated_Source\PSoC4/cyfitter_cfg.c **** 	{
 180:Generated_Source\PSoC4/cyfitter_cfg.c **** 		uint32 baseAddr = addr_table[i];
  48              		.loc 1 180 0
ARM GAS  C:\Users\Sil\AppData\Local\Temp\ccslyIQA.s 			page 5


  49 0008 BB00     		lsls	r3, r7, #2
  50 000a C658     		ldr	r6, [r0, r3]
  51              	.LVL3:
 181:Generated_Source\PSoC4/cyfitter_cfg.c **** 		uint8 count = (uint8)baseAddr;
  52              		.loc 1 181 0
  53 000c F3B2     		uxtb	r3, r6
  54              	.LVL4:
 182:Generated_Source\PSoC4/cyfitter_cfg.c **** 		baseAddr &= 0xFFFFFF00u;
  55              		.loc 1 182 0
  56 000e FF22     		movs	r2, #255
  57 0010 9643     		bics	r6, r2
  58              	.LVL5:
 183:Generated_Source\PSoC4/cyfitter_cfg.c **** 		while (count != 0u)
  59              		.loc 1 183 0
  60 0012 08E0     		b	.L3
  61              	.L4:
 184:Generated_Source\PSoC4/cyfitter_cfg.c **** 		{
 185:Generated_Source\PSoC4/cyfitter_cfg.c **** 			CY_SET_REG8((void *)(baseAddr + data_table[j].offset), data_table[j].value);
  62              		.loc 1 185 0
  63 0014 6A00     		lsls	r2, r5, #1
  64 0016 8A18     		adds	r2, r1, r2
  65 0018 1478     		ldrb	r4, [r2]
  66 001a A419     		adds	r4, r4, r6
  67 001c 5278     		ldrb	r2, [r2, #1]
  68 001e 2270     		strb	r2, [r4]
 186:Generated_Source\PSoC4/cyfitter_cfg.c **** 			j++;
  69              		.loc 1 186 0
  70 0020 0135     		adds	r5, r5, #1
  71              	.LVL6:
 187:Generated_Source\PSoC4/cyfitter_cfg.c **** 			count--;
  72              		.loc 1 187 0
  73 0022 013B     		subs	r3, r3, #1
  74              	.LVL7:
  75 0024 DBB2     		uxtb	r3, r3
  76              	.LVL8:
  77              	.L3:
 183:Generated_Source\PSoC4/cyfitter_cfg.c **** 		{
  78              		.loc 1 183 0
  79 0026 002B     		cmp	r3, #0
  80 0028 F4D1     		bne	.L4
  81              	.LBE2:
 178:Generated_Source\PSoC4/cyfitter_cfg.c **** 	{
  82              		.loc 1 178 0 discriminator 2
  83 002a 0137     		adds	r7, r7, #1
  84              	.LVL9:
  85              	.L2:
 178:Generated_Source\PSoC4/cyfitter_cfg.c **** 	{
  86              		.loc 1 178 0 is_stmt 0 discriminator 1
  87 002c 042F     		cmp	r7, #4
  88 002e EBD9     		bls	.L5
 188:Generated_Source\PSoC4/cyfitter_cfg.c **** 		}
 189:Generated_Source\PSoC4/cyfitter_cfg.c **** 	}
 190:Generated_Source\PSoC4/cyfitter_cfg.c **** }
  89              		.loc 1 190 0 is_stmt 1
  90              		@ sp needed
  91              	.LVL10:
  92              	.LVL11:
ARM GAS  C:\Users\Sil\AppData\Local\Temp\ccslyIQA.s 			page 6


  93 0030 F0BD     		pop	{r4, r5, r6, r7, pc}
  94              		.cfi_endproc
  95              	.LFE3:
  96              		.size	cfg_write_bytes32, .-cfg_write_bytes32
  97 0032 C046     		.section	.text.CYMEMZERO,"ax",%progbits
  98              		.align	2
  99              		.code	16
 100              		.thumb_func
 101              		.type	CYMEMZERO, %function
 102              	CYMEMZERO:
 103              	.LFB0:
  77:Generated_Source\PSoC4/cyfitter_cfg.c **** 	(void)memset(s, 0, n);
 104              		.loc 1 77 0
 105              		.cfi_startproc
 106              		@ args = 0, pretend = 0, frame = 0
 107              		@ frame_needed = 0, uses_anonymous_args = 0
 108              	.LVL12:
 109 0000 10B5     		push	{r4, lr}
 110              		.cfi_def_cfa_offset 8
 111              		.cfi_offset 4, -8
 112              		.cfi_offset 14, -4
 113 0002 0A00     		movs	r2, r1
  78:Generated_Source\PSoC4/cyfitter_cfg.c **** }
 114              		.loc 1 78 0
 115 0004 0021     		movs	r1, #0
 116              	.LVL13:
 117 0006 FFF7FEFF 		bl	memset
 118              	.LVL14:
  79:Generated_Source\PSoC4/cyfitter_cfg.c **** CY_CFG_UNUSED
 119              		.loc 1 79 0
 120              		@ sp needed
 121 000a 10BD     		pop	{r4, pc}
 122              		.cfi_endproc
 123              	.LFE0:
 124              		.size	CYMEMZERO, .-CYMEMZERO
 125              		.section	.psocinit,"ax",%progbits
 126              		.align	2
 127              		.code	16
 128              		.thumb_func
 129              		.type	ClockSetup, %function
 130              	ClockSetup:
 131              	.LFB4:
 191:Generated_Source\PSoC4/cyfitter_cfg.c **** 
 192:Generated_Source\PSoC4/cyfitter_cfg.c **** 
 193:Generated_Source\PSoC4/cyfitter_cfg.c **** /*******************************************************************************
 194:Generated_Source\PSoC4/cyfitter_cfg.c **** * Function Name: ClockSetup
 195:Generated_Source\PSoC4/cyfitter_cfg.c **** ********************************************************************************
 196:Generated_Source\PSoC4/cyfitter_cfg.c **** *
 197:Generated_Source\PSoC4/cyfitter_cfg.c **** * Summary:
 198:Generated_Source\PSoC4/cyfitter_cfg.c **** *   Performs the initialization of all of the clocks in the device based on the
 199:Generated_Source\PSoC4/cyfitter_cfg.c **** *   settings in the Clock tab of the DWR.  This includes enabling the requested
 200:Generated_Source\PSoC4/cyfitter_cfg.c **** *   clocks and setting the necessary dividers to produce the desired frequency. 
 201:Generated_Source\PSoC4/cyfitter_cfg.c **** *
 202:Generated_Source\PSoC4/cyfitter_cfg.c **** * Parameters:
 203:Generated_Source\PSoC4/cyfitter_cfg.c **** *   void
 204:Generated_Source\PSoC4/cyfitter_cfg.c **** *
 205:Generated_Source\PSoC4/cyfitter_cfg.c **** * Return:
ARM GAS  C:\Users\Sil\AppData\Local\Temp\ccslyIQA.s 			page 7


 206:Generated_Source\PSoC4/cyfitter_cfg.c **** *   void
 207:Generated_Source\PSoC4/cyfitter_cfg.c **** *
 208:Generated_Source\PSoC4/cyfitter_cfg.c **** *******************************************************************************/
 209:Generated_Source\PSoC4/cyfitter_cfg.c **** static void ClockSetup(void);
 210:Generated_Source\PSoC4/cyfitter_cfg.c **** CY_CFG_SECTION
 211:Generated_Source\PSoC4/cyfitter_cfg.c **** static void ClockSetup(void)
 212:Generated_Source\PSoC4/cyfitter_cfg.c **** {
 132              		.loc 1 212 0
 133              		.cfi_startproc
 134              		@ args = 0, pretend = 0, frame = 0
 135              		@ frame_needed = 0, uses_anonymous_args = 0
 136 0000 70B5     		push	{r4, r5, r6, lr}
 137              		.cfi_def_cfa_offset 16
 138              		.cfi_offset 4, -16
 139              		.cfi_offset 5, -12
 140              		.cfi_offset 6, -8
 141              		.cfi_offset 14, -4
 213:Generated_Source\PSoC4/cyfitter_cfg.c **** 	/* Enable HALF_EN before trimming for the flash accelerator. */
 214:Generated_Source\PSoC4/cyfitter_cfg.c **** 	CY_SET_REG32((void CYXDATA *)(CYREG_CLK_SELECT), (CY_GET_REG32((void *)CYREG_CLK_SELECT) | 0x00040
 142              		.loc 1 214 0
 143 0002 1B4C     		ldr	r4, .L8
 144 0004 2368     		ldr	r3, [r4]
 145 0006 8022     		movs	r2, #128
 146 0008 D202     		lsls	r2, r2, #11
 147 000a 1343     		orrs	r3, r2
 148 000c 2360     		str	r3, [r4]
 215:Generated_Source\PSoC4/cyfitter_cfg.c **** 
 216:Generated_Source\PSoC4/cyfitter_cfg.c **** 	/* Setup and trim IMO based on desired frequency. */
 217:Generated_Source\PSoC4/cyfitter_cfg.c **** 	CySysClkWriteImoFreq(24u);
 149              		.loc 1 217 0
 150 000e 1820     		movs	r0, #24
 151 0010 FFF7FEFF 		bl	CySysClkWriteImoFreq
 152              	.LVL15:
 218:Generated_Source\PSoC4/cyfitter_cfg.c **** 
 219:Generated_Source\PSoC4/cyfitter_cfg.c **** 	/* Disable HALF_EN since it is not required at this IMO frequency. */
 220:Generated_Source\PSoC4/cyfitter_cfg.c **** 	CY_SET_REG32((void CYXDATA *)(CYREG_CLK_SELECT), (CY_GET_REG32((void *)CYREG_CLK_SELECT) & 0xFFFBF
 153              		.loc 1 220 0
 154 0014 2268     		ldr	r2, [r4]
 155 0016 174B     		ldr	r3, .L8+4
 156 0018 1340     		ands	r3, r2
 157 001a 2360     		str	r3, [r4]
 221:Generated_Source\PSoC4/cyfitter_cfg.c **** 	/* CYDEV_CLK_ILO_CONFIG Starting address: CYDEV_CLK_ILO_CONFIG */
 222:Generated_Source\PSoC4/cyfitter_cfg.c **** 	CY_SET_REG32((void *)(CYREG_CLK_ILO_CONFIG), 0x80000006u);
 158              		.loc 1 222 0
 159 001c 164A     		ldr	r2, .L8+8
 160 001e 174B     		ldr	r3, .L8+12
 161 0020 1A60     		str	r2, [r3]
 223:Generated_Source\PSoC4/cyfitter_cfg.c **** 
 224:Generated_Source\PSoC4/cyfitter_cfg.c **** 
 225:Generated_Source\PSoC4/cyfitter_cfg.c **** 	/* CYDEV_CLK_SELECT00 Starting address: CYDEV_CLK_SELECT00 */
 226:Generated_Source\PSoC4/cyfitter_cfg.c **** 	CY_SET_REG32((void *)(CYREG_CLK_SELECT02), 0x00000011u);
 162              		.loc 1 226 0
 163 0022 1122     		movs	r2, #17
 164 0024 164B     		ldr	r3, .L8+16
 165 0026 1A60     		str	r2, [r3]
 227:Generated_Source\PSoC4/cyfitter_cfg.c **** 	CY_SET_REG32((void *)(CYREG_CLK_SELECT03), 0x00000030u);
 166              		.loc 1 227 0
ARM GAS  C:\Users\Sil\AppData\Local\Temp\ccslyIQA.s 			page 8


 167 0028 1F32     		adds	r2, r2, #31
 168 002a 164B     		ldr	r3, .L8+20
 169 002c 1A60     		str	r2, [r3]
 228:Generated_Source\PSoC4/cyfitter_cfg.c **** 	CY_SET_REG32((void *)(CYREG_CLK_SELECT05), 0x00000020u);
 170              		.loc 1 228 0
 171 002e 103A     		subs	r2, r2, #16
 172 0030 154B     		ldr	r3, .L8+24
 173 0032 1A60     		str	r2, [r3]
 229:Generated_Source\PSoC4/cyfitter_cfg.c **** 	CY_SET_REG32((void *)(CYREG_CLK_SELECT06), 0x00000010u);
 174              		.loc 1 229 0
 175 0034 103A     		subs	r2, r2, #16
 176 0036 154B     		ldr	r3, .L8+28
 177 0038 1A60     		str	r2, [r3]
 230:Generated_Source\PSoC4/cyfitter_cfg.c **** 
 231:Generated_Source\PSoC4/cyfitter_cfg.c **** 	/* CYDEV_CLK_IMO_CONFIG Starting address: CYDEV_CLK_IMO_CONFIG */
 232:Generated_Source\PSoC4/cyfitter_cfg.c **** 	CY_SET_REG32((void *)(CYREG_CLK_IMO_CONFIG), 0x80000000u);
 178              		.loc 1 232 0
 179 003a 8023     		movs	r3, #128
 180 003c 1B06     		lsls	r3, r3, #24
 181 003e 144A     		ldr	r2, .L8+32
 182 0040 1360     		str	r3, [r2]
 233:Generated_Source\PSoC4/cyfitter_cfg.c **** 
 234:Generated_Source\PSoC4/cyfitter_cfg.c **** 	/* CYDEV_CLK_SELECT Starting address: CYDEV_CLK_SELECT */
 235:Generated_Source\PSoC4/cyfitter_cfg.c **** 	CY_SET_REG32((void *)(CYREG_CLK_SELECT), 0x00000000u);
 183              		.loc 1 235 0
 184 0042 0025     		movs	r5, #0
 185 0044 2560     		str	r5, [r4]
 236:Generated_Source\PSoC4/cyfitter_cfg.c **** 
 237:Generated_Source\PSoC4/cyfitter_cfg.c **** 	/* CYDEV_CLK_DIVIDER_A00 Starting address: CYDEV_CLK_DIVIDER_A00 */
 238:Generated_Source\PSoC4/cyfitter_cfg.c **** 	CY_SET_REG32((void *)(CYREG_CLK_DIVIDER_A00), 0x800000FEu);
 186              		.loc 1 238 0
 187 0046 1349     		ldr	r1, .L8+36
 188 0048 134A     		ldr	r2, .L8+40
 189 004a 1160     		str	r1, [r2]
 239:Generated_Source\PSoC4/cyfitter_cfg.c **** 
 240:Generated_Source\PSoC4/cyfitter_cfg.c **** 	/* CYDEV_CLK_DIVIDER_B00 Starting address: CYDEV_CLK_DIVIDER_B00 */
 241:Generated_Source\PSoC4/cyfitter_cfg.c **** 	CY_SET_REG32((void *)(CYREG_CLK_DIVIDER_B00), 0xC00000FEu);
 190              		.loc 1 241 0
 191 004c 1349     		ldr	r1, .L8+44
 192 004e 144A     		ldr	r2, .L8+48
 193 0050 1160     		str	r1, [r2]
 242:Generated_Source\PSoC4/cyfitter_cfg.c **** 
 243:Generated_Source\PSoC4/cyfitter_cfg.c **** 	/* CYDEV_CLK_DIVIDER_C00 Starting address: CYDEV_CLK_DIVIDER_C00 */
 244:Generated_Source\PSoC4/cyfitter_cfg.c **** 	CY_SET_REG32((void *)(CYREG_CLK_DIVIDER_C00), 0x80000000u);
 194              		.loc 1 244 0
 195 0052 144A     		ldr	r2, .L8+52
 196 0054 1360     		str	r3, [r2]
 245:Generated_Source\PSoC4/cyfitter_cfg.c **** 
 246:Generated_Source\PSoC4/cyfitter_cfg.c **** 	/* CYDEV_CLK_DIVIDER_A01 Starting address: CYDEV_CLK_DIVIDER_A01 */
 247:Generated_Source\PSoC4/cyfitter_cfg.c **** 	CY_SET_REG32((void *)(CYREG_CLK_DIVIDER_A01), 0x80000010u);
 197              		.loc 1 247 0
 198 0056 144A     		ldr	r2, .L8+56
 199 0058 144B     		ldr	r3, .L8+60
 200 005a 1A60     		str	r2, [r3]
 248:Generated_Source\PSoC4/cyfitter_cfg.c **** 
 249:Generated_Source\PSoC4/cyfitter_cfg.c **** 	(void)CyIntSetVector(9u, &CySysWdtIsr);
 201              		.loc 1 249 0
ARM GAS  C:\Users\Sil\AppData\Local\Temp\ccslyIQA.s 			page 9


 202 005c 1449     		ldr	r1, .L8+64
 203 005e 0920     		movs	r0, #9
 204 0060 FFF7FEFF 		bl	CyIntSetVector
 205              	.LVL16:
 250:Generated_Source\PSoC4/cyfitter_cfg.c **** 	CyIntEnable(9u);
 206              		.loc 1 250 0
 207 0064 0920     		movs	r0, #9
 208 0066 FFF7FEFF 		bl	CyIntEnable
 209              	.LVL17:
 251:Generated_Source\PSoC4/cyfitter_cfg.c **** 	CY_SET_REG32((void *)(CYREG_WDT_CONFIG), 0x00000000u);
 210              		.loc 1 251 0
 211 006a 124B     		ldr	r3, .L8+68
 212 006c 1D60     		str	r5, [r3]
 252:Generated_Source\PSoC4/cyfitter_cfg.c **** }
 213              		.loc 1 252 0
 214              		@ sp needed
 215 006e 70BD     		pop	{r4, r5, r6, pc}
 216              	.L9:
 217              		.align	2
 218              	.L8:
 219 0070 00010B40 		.word	1074462976
 220 0074 FFFFFBFF 		.word	-262145
 221 0078 06000080 		.word	-2147483642
 222 007c 04010B40 		.word	1074462980
 223 0080 08020240 		.word	1073873416
 224 0084 0C020240 		.word	1073873420
 225 0088 14020240 		.word	1073873428
 226 008c 18020240 		.word	1073873432
 227 0090 08010B40 		.word	1074462984
 228 0094 FE000080 		.word	-2147483394
 229 0098 00000240 		.word	1073872896
 230 009c FE0000C0 		.word	-1073741570
 231 00a0 40000240 		.word	1073872960
 232 00a4 80000240 		.word	1073873024
 233 00a8 10000080 		.word	-2147483632
 234 00ac 04000240 		.word	1073872900
 235 00b0 00000000 		.word	CySysWdtIsr
 236 00b4 0C020B40 		.word	1074463244
 237              		.cfi_endproc
 238              	.LFE4:
 239              		.size	ClockSetup, .-ClockSetup
 240              		.section	.text.SetAnalogRoutingPumps,"ax",%progbits
 241              		.align	2
 242              		.global	SetAnalogRoutingPumps
 243              		.code	16
 244              		.thumb_func
 245              		.type	SetAnalogRoutingPumps, %function
 246              	SetAnalogRoutingPumps:
 247              	.LFB6:
 253:Generated_Source\PSoC4/cyfitter_cfg.c **** 
 254:Generated_Source\PSoC4/cyfitter_cfg.c **** 
 255:Generated_Source\PSoC4/cyfitter_cfg.c **** /* Analog API Functions */
 256:Generated_Source\PSoC4/cyfitter_cfg.c **** 
 257:Generated_Source\PSoC4/cyfitter_cfg.c **** 
 258:Generated_Source\PSoC4/cyfitter_cfg.c **** /*******************************************************************************
 259:Generated_Source\PSoC4/cyfitter_cfg.c **** * Function Name: AnalogSetDefault
 260:Generated_Source\PSoC4/cyfitter_cfg.c **** ********************************************************************************
ARM GAS  C:\Users\Sil\AppData\Local\Temp\ccslyIQA.s 			page 10


 261:Generated_Source\PSoC4/cyfitter_cfg.c **** *
 262:Generated_Source\PSoC4/cyfitter_cfg.c **** * Summary:
 263:Generated_Source\PSoC4/cyfitter_cfg.c **** *  Sets up the analog portions of the chip to default values based on chip
 264:Generated_Source\PSoC4/cyfitter_cfg.c **** *  configuration options from the project.
 265:Generated_Source\PSoC4/cyfitter_cfg.c **** *
 266:Generated_Source\PSoC4/cyfitter_cfg.c **** * Parameters:
 267:Generated_Source\PSoC4/cyfitter_cfg.c **** *  void
 268:Generated_Source\PSoC4/cyfitter_cfg.c **** *
 269:Generated_Source\PSoC4/cyfitter_cfg.c **** * Return:
 270:Generated_Source\PSoC4/cyfitter_cfg.c **** *  void
 271:Generated_Source\PSoC4/cyfitter_cfg.c **** *
 272:Generated_Source\PSoC4/cyfitter_cfg.c **** *******************************************************************************/
 273:Generated_Source\PSoC4/cyfitter_cfg.c **** static void AnalogSetDefault(void);
 274:Generated_Source\PSoC4/cyfitter_cfg.c **** static void AnalogSetDefault(void)
 275:Generated_Source\PSoC4/cyfitter_cfg.c **** {
 276:Generated_Source\PSoC4/cyfitter_cfg.c **** 	SetAnalogRoutingPumps(1);
 277:Generated_Source\PSoC4/cyfitter_cfg.c **** }
 278:Generated_Source\PSoC4/cyfitter_cfg.c **** 
 279:Generated_Source\PSoC4/cyfitter_cfg.c **** 
 280:Generated_Source\PSoC4/cyfitter_cfg.c **** /*******************************************************************************
 281:Generated_Source\PSoC4/cyfitter_cfg.c **** * Function Name: SetAnalogRoutingPumps
 282:Generated_Source\PSoC4/cyfitter_cfg.c **** ********************************************************************************
 283:Generated_Source\PSoC4/cyfitter_cfg.c **** *
 284:Generated_Source\PSoC4/cyfitter_cfg.c **** * Summary:
 285:Generated_Source\PSoC4/cyfitter_cfg.c **** * Enables or disables the analog pumps feeding analog routing switches.
 286:Generated_Source\PSoC4/cyfitter_cfg.c **** * Intended to be called at startup, based on the Vdda system configuration;
 287:Generated_Source\PSoC4/cyfitter_cfg.c **** * may be called during operation when the user informs us that the Vdda voltage crossed the pump th
 288:Generated_Source\PSoC4/cyfitter_cfg.c **** *
 289:Generated_Source\PSoC4/cyfitter_cfg.c **** * Parameters:
 290:Generated_Source\PSoC4/cyfitter_cfg.c **** *  enabled - 1 to enable the pumps, 0 to disable the pumps
 291:Generated_Source\PSoC4/cyfitter_cfg.c **** *
 292:Generated_Source\PSoC4/cyfitter_cfg.c **** * Return:
 293:Generated_Source\PSoC4/cyfitter_cfg.c **** *  void
 294:Generated_Source\PSoC4/cyfitter_cfg.c **** *
 295:Generated_Source\PSoC4/cyfitter_cfg.c **** *******************************************************************************/
 296:Generated_Source\PSoC4/cyfitter_cfg.c **** void SetAnalogRoutingPumps(uint8 enabled)
 297:Generated_Source\PSoC4/cyfitter_cfg.c **** {
 248              		.loc 1 297 0
 249              		.cfi_startproc
 250              		@ args = 0, pretend = 0, frame = 0
 251              		@ frame_needed = 0, uses_anonymous_args = 0
 252              		@ link register save eliminated.
 253              	.LVL18:
 298:Generated_Source\PSoC4/cyfitter_cfg.c **** 	uint32 regValue = CY_GET_XTND_REG32((void *)(CYREG_SAR_PUMP_CTRL));
 254              		.loc 1 298 0
 255 0000 0C4B     		ldr	r3, .L15
 256 0002 1B68     		ldr	r3, [r3]
 257              	.LVL19:
 299:Generated_Source\PSoC4/cyfitter_cfg.c **** 	if (enabled != 0u)
 258              		.loc 1 299 0
 259 0004 0028     		cmp	r0, #0
 260 0006 03D0     		beq	.L11
 300:Generated_Source\PSoC4/cyfitter_cfg.c **** 	{
 301:Generated_Source\PSoC4/cyfitter_cfg.c **** 		regValue |= 0x80000000u;
 261              		.loc 1 301 0
 262 0008 8022     		movs	r2, #128
 263 000a 1206     		lsls	r2, r2, #24
ARM GAS  C:\Users\Sil\AppData\Local\Temp\ccslyIQA.s 			page 11


 264 000c 1343     		orrs	r3, r2
 265              	.LVL20:
 266 000e 01E0     		b	.L12
 267              	.L11:
 302:Generated_Source\PSoC4/cyfitter_cfg.c **** 	}
 303:Generated_Source\PSoC4/cyfitter_cfg.c **** 	else
 304:Generated_Source\PSoC4/cyfitter_cfg.c **** 	{
 305:Generated_Source\PSoC4/cyfitter_cfg.c **** 		regValue &= ~0x80000000u;
 268              		.loc 1 305 0
 269 0010 5B00     		lsls	r3, r3, #1
 270              	.LVL21:
 271 0012 5B08     		lsrs	r3, r3, #1
 272              	.LVL22:
 273              	.L12:
 306:Generated_Source\PSoC4/cyfitter_cfg.c **** 	}
 307:Generated_Source\PSoC4/cyfitter_cfg.c **** 	CY_SET_XTND_REG32((void *)(CYREG_SAR_PUMP_CTRL), regValue);
 274              		.loc 1 307 0
 275 0014 074A     		ldr	r2, .L15
 276 0016 1360     		str	r3, [r2]
 308:Generated_Source\PSoC4/cyfitter_cfg.c **** 	regValue = CY_GET_XTND_REG32((void *)(CYREG_CLK_IMO_CONFIG));
 277              		.loc 1 308 0
 278 0018 074B     		ldr	r3, .L15+4
 279              	.LVL23:
 280 001a 1B68     		ldr	r3, [r3]
 281              	.LVL24:
 309:Generated_Source\PSoC4/cyfitter_cfg.c **** 	if (enabled != 0u)
 282              		.loc 1 309 0
 283 001c 0028     		cmp	r0, #0
 284 001e 03D0     		beq	.L13
 310:Generated_Source\PSoC4/cyfitter_cfg.c **** 	{
 311:Generated_Source\PSoC4/cyfitter_cfg.c **** 		regValue |= 0x02000000u;
 285              		.loc 1 311 0
 286 0020 8022     		movs	r2, #128
 287 0022 9204     		lsls	r2, r2, #18
 288 0024 1343     		orrs	r3, r2
 289              	.LVL25:
 290 0026 01E0     		b	.L14
 291              	.L13:
 312:Generated_Source\PSoC4/cyfitter_cfg.c **** 	}
 313:Generated_Source\PSoC4/cyfitter_cfg.c **** 	else
 314:Generated_Source\PSoC4/cyfitter_cfg.c **** 	{
 315:Generated_Source\PSoC4/cyfitter_cfg.c **** 		regValue &= ~0x02000000u;
 292              		.loc 1 315 0
 293 0028 044A     		ldr	r2, .L15+8
 294 002a 1340     		ands	r3, r2
 295              	.LVL26:
 296              	.L14:
 316:Generated_Source\PSoC4/cyfitter_cfg.c **** 	}
 317:Generated_Source\PSoC4/cyfitter_cfg.c **** 	CY_SET_XTND_REG32((void *)(CYREG_CLK_IMO_CONFIG), regValue);
 297              		.loc 1 317 0
 298 002c 024A     		ldr	r2, .L15+4
 299 002e 1360     		str	r3, [r2]
 318:Generated_Source\PSoC4/cyfitter_cfg.c **** }
 300              		.loc 1 318 0
 301              		@ sp needed
 302 0030 7047     		bx	lr
 303              	.L16:
ARM GAS  C:\Users\Sil\AppData\Local\Temp\ccslyIQA.s 			page 12


 304 0032 C046     		.align	2
 305              	.L15:
 306 0034 80031A40 		.word	1075446656
 307 0038 08010B40 		.word	1074462984
 308 003c FFFFFFFD 		.word	-33554433
 309              		.cfi_endproc
 310              	.LFE6:
 311              		.size	SetAnalogRoutingPumps, .-SetAnalogRoutingPumps
 312              		.section	.text.AnalogSetDefault,"ax",%progbits
 313              		.align	2
 314              		.code	16
 315              		.thumb_func
 316              		.type	AnalogSetDefault, %function
 317              	AnalogSetDefault:
 318              	.LFB5:
 275:Generated_Source\PSoC4/cyfitter_cfg.c **** 	SetAnalogRoutingPumps(1);
 319              		.loc 1 275 0
 320              		.cfi_startproc
 321              		@ args = 0, pretend = 0, frame = 0
 322              		@ frame_needed = 0, uses_anonymous_args = 0
 323 0000 10B5     		push	{r4, lr}
 324              		.cfi_def_cfa_offset 8
 325              		.cfi_offset 4, -8
 326              		.cfi_offset 14, -4
 276:Generated_Source\PSoC4/cyfitter_cfg.c **** }
 327              		.loc 1 276 0
 328 0002 0120     		movs	r0, #1
 329 0004 FFF7FEFF 		bl	SetAnalogRoutingPumps
 330              	.LVL27:
 277:Generated_Source\PSoC4/cyfitter_cfg.c **** 
 331              		.loc 1 277 0
 332              		@ sp needed
 333 0008 10BD     		pop	{r4, pc}
 334              		.cfi_endproc
 335              	.LFE5:
 336              		.size	AnalogSetDefault, .-AnalogSetDefault
 337              		.section	.psocinit
 338              		.align	2
 339              		.global	cyfitter_cfg
 340              		.code	16
 341              		.thumb_func
 342              		.type	cyfitter_cfg, %function
 343              	cyfitter_cfg:
 344              	.LFB7:
 319:Generated_Source\PSoC4/cyfitter_cfg.c **** 
 320:Generated_Source\PSoC4/cyfitter_cfg.c **** 
 321:Generated_Source\PSoC4/cyfitter_cfg.c **** 
 322:Generated_Source\PSoC4/cyfitter_cfg.c **** 
 323:Generated_Source\PSoC4/cyfitter_cfg.c **** /*******************************************************************************
 324:Generated_Source\PSoC4/cyfitter_cfg.c **** * Function Name: cyfitter_cfg
 325:Generated_Source\PSoC4/cyfitter_cfg.c **** ********************************************************************************
 326:Generated_Source\PSoC4/cyfitter_cfg.c **** * Summary:
 327:Generated_Source\PSoC4/cyfitter_cfg.c **** *  This function is called by the start-up code for the selected device. It
 328:Generated_Source\PSoC4/cyfitter_cfg.c **** *  performs all of the necessary device configuration based on the design
 329:Generated_Source\PSoC4/cyfitter_cfg.c **** *  settings.  This includes settings from the Design Wide Resources (DWR) such
 330:Generated_Source\PSoC4/cyfitter_cfg.c **** *  as Clocks and Pins as well as any component configuration that is necessary.
 331:Generated_Source\PSoC4/cyfitter_cfg.c **** *
ARM GAS  C:\Users\Sil\AppData\Local\Temp\ccslyIQA.s 			page 13


 332:Generated_Source\PSoC4/cyfitter_cfg.c **** * Parameters:
 333:Generated_Source\PSoC4/cyfitter_cfg.c **** *   void
 334:Generated_Source\PSoC4/cyfitter_cfg.c **** *
 335:Generated_Source\PSoC4/cyfitter_cfg.c **** * Return:
 336:Generated_Source\PSoC4/cyfitter_cfg.c **** *   void
 337:Generated_Source\PSoC4/cyfitter_cfg.c **** *
 338:Generated_Source\PSoC4/cyfitter_cfg.c **** *******************************************************************************/
 339:Generated_Source\PSoC4/cyfitter_cfg.c **** CY_CFG_SECTION
 340:Generated_Source\PSoC4/cyfitter_cfg.c **** void cyfitter_cfg(void)
 341:Generated_Source\PSoC4/cyfitter_cfg.c **** {
 345              		.loc 1 341 0
 346              		.cfi_startproc
 347              		@ args = 0, pretend = 0, frame = 0
 348              		@ frame_needed = 0, uses_anonymous_args = 0
 349 00b8 10B5     		push	{r4, lr}
 350              		.cfi_def_cfa_offset 8
 351              		.cfi_offset 4, -8
 352              		.cfi_offset 14, -4
 342:Generated_Source\PSoC4/cyfitter_cfg.c **** 	/* Disable interrupts by default. Let user enable if/when they want. */
 343:Generated_Source\PSoC4/cyfitter_cfg.c **** 	CyGlobalIntDisable;
 353              		.loc 1 343 0
 354              		.syntax divided
 355              	@ 343 "Generated_Source\PSoC4\cyfitter_cfg.c" 1
 356 00ba 72B6     		CPSID   i
 357              	@ 0 "" 2
 358              	.LVL28:
 359              		.thumb
 360              		.syntax unified
 361              	.LBB3:
 344:Generated_Source\PSoC4/cyfitter_cfg.c **** 
 345:Generated_Source\PSoC4/cyfitter_cfg.c **** 	{
 346:Generated_Source\PSoC4/cyfitter_cfg.c **** 		static const uint32 CYCODE cy_cfg_addr_table[] = {
 347:Generated_Source\PSoC4/cyfitter_cfg.c **** 			0x400F3004u, /* Base address: 0x400F3000 Count: 4 */
 348:Generated_Source\PSoC4/cyfitter_cfg.c **** 			0x400F3101u, /* Base address: 0x400F3100 Count: 1 */
 349:Generated_Source\PSoC4/cyfitter_cfg.c **** 			0x400F3301u, /* Base address: 0x400F3300 Count: 1 */
 350:Generated_Source\PSoC4/cyfitter_cfg.c **** 			0x400F4203u, /* Base address: 0x400F4200 Count: 3 */
 351:Generated_Source\PSoC4/cyfitter_cfg.c **** 			0x400F4306u, /* Base address: 0x400F4300 Count: 6 */
 352:Generated_Source\PSoC4/cyfitter_cfg.c **** 		};
 353:Generated_Source\PSoC4/cyfitter_cfg.c **** 
 354:Generated_Source\PSoC4/cyfitter_cfg.c **** 		static const cy_cfg_addrvalue_t CYCODE cy_cfg_data_table[] = {
 355:Generated_Source\PSoC4/cyfitter_cfg.c **** 			{0x38u, 0x80u},
 356:Generated_Source\PSoC4/cyfitter_cfg.c **** 			{0x3Eu, 0x40u},
 357:Generated_Source\PSoC4/cyfitter_cfg.c **** 			{0x58u, 0x04u},
 358:Generated_Source\PSoC4/cyfitter_cfg.c **** 			{0x5Fu, 0x01u},
 359:Generated_Source\PSoC4/cyfitter_cfg.c **** 			{0x18u, 0x01u},
 360:Generated_Source\PSoC4/cyfitter_cfg.c **** 			{0xB4u, 0x01u},
 361:Generated_Source\PSoC4/cyfitter_cfg.c **** 			{0x6Cu, 0x40u},
 362:Generated_Source\PSoC4/cyfitter_cfg.c **** 			{0x70u, 0x08u},
 363:Generated_Source\PSoC4/cyfitter_cfg.c **** 			{0xDCu, 0x03u},
 364:Generated_Source\PSoC4/cyfitter_cfg.c **** 			{0x61u, 0x02u},
 365:Generated_Source\PSoC4/cyfitter_cfg.c **** 			{0xA1u, 0x02u},
 366:Generated_Source\PSoC4/cyfitter_cfg.c **** 			{0xB4u, 0x48u},
 367:Generated_Source\PSoC4/cyfitter_cfg.c **** 			{0xB5u, 0x02u},
 368:Generated_Source\PSoC4/cyfitter_cfg.c **** 			{0xD8u, 0x02u},
 369:Generated_Source\PSoC4/cyfitter_cfg.c **** 			{0xECu, 0x08u},
 370:Generated_Source\PSoC4/cyfitter_cfg.c **** 		};
 371:Generated_Source\PSoC4/cyfitter_cfg.c **** 
ARM GAS  C:\Users\Sil\AppData\Local\Temp\ccslyIQA.s 			page 14


 372:Generated_Source\PSoC4/cyfitter_cfg.c **** 
 373:Generated_Source\PSoC4/cyfitter_cfg.c **** 
 374:Generated_Source\PSoC4/cyfitter_cfg.c **** 		CYPACKED typedef struct {
 375:Generated_Source\PSoC4/cyfitter_cfg.c **** 			void CYFAR *address;
 376:Generated_Source\PSoC4/cyfitter_cfg.c **** 			uint16 size;
 377:Generated_Source\PSoC4/cyfitter_cfg.c **** 		} CYPACKED_ATTR cfg_memset_t;
 378:Generated_Source\PSoC4/cyfitter_cfg.c **** 
 379:Generated_Source\PSoC4/cyfitter_cfg.c **** 		static const cfg_memset_t CYCODE cfg_memset_list[] = {
 380:Generated_Source\PSoC4/cyfitter_cfg.c **** 			/* address, size */
 381:Generated_Source\PSoC4/cyfitter_cfg.c **** 			{(void CYFAR *)(CYDEV_UDB_P0_U0_BASE), 1024u},
 382:Generated_Source\PSoC4/cyfitter_cfg.c **** 			{(void CYFAR *)(CYDEV_UDB_DSI0_BASE), 1024u},
 383:Generated_Source\PSoC4/cyfitter_cfg.c **** 		};
 384:Generated_Source\PSoC4/cyfitter_cfg.c **** 
 385:Generated_Source\PSoC4/cyfitter_cfg.c **** 		uint8 CYDATA i;
 386:Generated_Source\PSoC4/cyfitter_cfg.c **** 
 387:Generated_Source\PSoC4/cyfitter_cfg.c **** 		/* Zero out critical memory blocks before beginning configuration */
 388:Generated_Source\PSoC4/cyfitter_cfg.c **** 		for (i = 0u; i < (sizeof(cfg_memset_list)/sizeof(cfg_memset_list[0])); i++)
 362              		.loc 1 388 0
 363 00bc 0024     		movs	r4, #0
 364 00be 0FE0     		b	.L19
 365              	.LVL29:
 366              	.L20:
 367              	.LBB4:
 389:Generated_Source\PSoC4/cyfitter_cfg.c **** 		{
 390:Generated_Source\PSoC4/cyfitter_cfg.c **** 			const cfg_memset_t CYCODE * CYDATA ms = &cfg_memset_list[i];
 391:Generated_Source\PSoC4/cyfitter_cfg.c **** 			CYMEMZERO(ms->address, (size_t)(uint32)(ms->size));
 368              		.loc 1 391 0 discriminator 3
 369 00c0 3148     		ldr	r0, .L21
 370 00c2 6200     		lsls	r2, r4, #1
 371 00c4 1319     		adds	r3, r2, r4
 372 00c6 5900     		lsls	r1, r3, #1
 373 00c8 0B00     		movs	r3, r1
 374 00ca 4118     		adds	r1, r0, r1
 375 00cc 8988     		ldrh	r1, [r1, #4]
 376 00ce 1A5A     		ldrh	r2, [r3, r0]
 377 00d0 C318     		adds	r3, r0, r3
 378 00d2 5888     		ldrh	r0, [r3, #2]
 379 00d4 0004     		lsls	r0, r0, #16
 380 00d6 1043     		orrs	r0, r2
 381 00d8 FFF7FEFF 		bl	CYMEMZERO
 382              	.LVL30:
 383              	.LBE4:
 388:Generated_Source\PSoC4/cyfitter_cfg.c **** 		{
 384              		.loc 1 388 0 discriminator 3
 385 00dc 0134     		adds	r4, r4, #1
 386              	.LVL31:
 387 00de E4B2     		uxtb	r4, r4
 388              	.LVL32:
 389              	.L19:
 388:Generated_Source\PSoC4/cyfitter_cfg.c **** 		{
 390              		.loc 1 388 0 is_stmt 0 discriminator 1
 391 00e0 012C     		cmp	r4, #1
 392 00e2 EDD9     		bls	.L20
 392:Generated_Source\PSoC4/cyfitter_cfg.c **** 		}
 393:Generated_Source\PSoC4/cyfitter_cfg.c **** 
 394:Generated_Source\PSoC4/cyfitter_cfg.c **** 		cfg_write_bytes32(cy_cfg_addr_table, cy_cfg_data_table);
 393              		.loc 1 394 0 is_stmt 1
ARM GAS  C:\Users\Sil\AppData\Local\Temp\ccslyIQA.s 			page 15


 394 00e4 2848     		ldr	r0, .L21
 395 00e6 0100     		movs	r1, r0
 396 00e8 0C31     		adds	r1, r1, #12
 397 00ea 2C30     		adds	r0, r0, #44
 398 00ec FFF7FEFF 		bl	cfg_write_bytes32
 399              	.LVL33:
 395:Generated_Source\PSoC4/cyfitter_cfg.c **** 
 396:Generated_Source\PSoC4/cyfitter_cfg.c **** 		/* HSIOM Starting address: CYDEV_HSIOM_BASE */
 397:Generated_Source\PSoC4/cyfitter_cfg.c **** 		CY_SET_REG32((void *)(CYDEV_HSIOM_BASE), 0xFFFF0000u);
 400              		.loc 1 397 0
 401 00f0 264A     		ldr	r2, .L21+4
 402 00f2 274B     		ldr	r3, .L21+8
 403 00f4 1A60     		str	r2, [r3]
 398:Generated_Source\PSoC4/cyfitter_cfg.c **** 		CY_SET_REG32((void *)(CYREG_HSIOM_PORT_SEL3), 0x0000EE00u);
 404              		.loc 1 398 0
 405 00f6 EE22     		movs	r2, #238
 406 00f8 1202     		lsls	r2, r2, #8
 407 00fa 264B     		ldr	r3, .L21+12
 408 00fc 1A60     		str	r2, [r3]
 399:Generated_Source\PSoC4/cyfitter_cfg.c **** 		CY_SET_REG32((void *)(CYREG_HSIOM_PORT_SEL4), 0x00000090u);
 409              		.loc 1 399 0
 410 00fe 9022     		movs	r2, #144
 411 0100 254B     		ldr	r3, .L21+16
 412 0102 1A60     		str	r2, [r3]
 400:Generated_Source\PSoC4/cyfitter_cfg.c **** 
 401:Generated_Source\PSoC4/cyfitter_cfg.c **** 		/* UDB_PA_0 Starting address: CYDEV_UDB_PA0_BASE */
 402:Generated_Source\PSoC4/cyfitter_cfg.c **** 		CY_SET_REG32((void *)(CYDEV_UDB_PA0_BASE), 0x00990000u);
 413              		.loc 1 402 0
 414 0104 9923     		movs	r3, #153
 415 0106 1B04     		lsls	r3, r3, #16
 416 0108 244A     		ldr	r2, .L21+20
 417 010a 1360     		str	r3, [r2]
 403:Generated_Source\PSoC4/cyfitter_cfg.c **** 
 404:Generated_Source\PSoC4/cyfitter_cfg.c **** 		/* UDB_PA_1 Starting address: CYDEV_UDB_PA1_BASE */
 405:Generated_Source\PSoC4/cyfitter_cfg.c **** 		CY_SET_REG32((void *)(CYDEV_UDB_PA1_BASE), 0x00990000u);
 418              		.loc 1 405 0
 419 010c 244A     		ldr	r2, .L21+24
 420 010e 1360     		str	r3, [r2]
 406:Generated_Source\PSoC4/cyfitter_cfg.c **** 
 407:Generated_Source\PSoC4/cyfitter_cfg.c **** 		/* UDB_PA_2 Starting address: CYDEV_UDB_PA2_BASE */
 408:Generated_Source\PSoC4/cyfitter_cfg.c **** 		CY_SET_REG32((void *)(CYDEV_UDB_PA2_BASE), 0x00990000u);
 421              		.loc 1 408 0
 422 0110 244A     		ldr	r2, .L21+28
 423 0112 1360     		str	r3, [r2]
 409:Generated_Source\PSoC4/cyfitter_cfg.c **** 
 410:Generated_Source\PSoC4/cyfitter_cfg.c **** 		/* UDB_PA_3 Starting address: CYDEV_UDB_PA3_BASE */
 411:Generated_Source\PSoC4/cyfitter_cfg.c **** 		CY_SET_REG32((void *)(CYDEV_UDB_PA3_BASE), 0x00990000u);
 424              		.loc 1 411 0
 425 0114 244A     		ldr	r2, .L21+32
 426 0116 1360     		str	r3, [r2]
 412:Generated_Source\PSoC4/cyfitter_cfg.c **** 		CY_SET_REG32((void *)(CYREG_UDB_PA3_CFG8), 0x20000000u);
 427              		.loc 1 412 0
 428 0118 8022     		movs	r2, #128
 429 011a 9205     		lsls	r2, r2, #22
 430 011c 234B     		ldr	r3, .L21+36
 431 011e 1A60     		str	r2, [r3]
 413:Generated_Source\PSoC4/cyfitter_cfg.c **** 
ARM GAS  C:\Users\Sil\AppData\Local\Temp\ccslyIQA.s 			page 16


 414:Generated_Source\PSoC4/cyfitter_cfg.c **** 		/* Enable UDB array and digital routing */
 415:Generated_Source\PSoC4/cyfitter_cfg.c **** 		CY_SET_XTND_REG8((void *)CYREG_UDB_UDBIF_WAIT_CFG, (uint8)((CY_GET_XTND_REG8((void *)CYREG_UDB_UD
 432              		.loc 1 415 0
 433 0120 2349     		ldr	r1, .L21+40
 434 0122 0B78     		ldrb	r3, [r1]
 435 0124 3C22     		movs	r2, #60
 436 0126 9343     		bics	r3, r2
 437 0128 1422     		movs	r2, #20
 438 012a 1343     		orrs	r3, r2
 439 012c DBB2     		uxtb	r3, r3
 440 012e 0B70     		strb	r3, [r1]
 416:Generated_Source\PSoC4/cyfitter_cfg.c **** 		CY_SET_XTND_REG8((void *)CYREG_UDB_UDBIF_BANK_CTL, (uint8)(CY_GET_XTND_REG8((void *)CYREG_UDB_UDB
 441              		.loc 1 416 0
 442 0130 204A     		ldr	r2, .L21+44
 443 0132 1178     		ldrb	r1, [r2]
 444 0134 1623     		movs	r3, #22
 445 0136 0B43     		orrs	r3, r1
 446 0138 DBB2     		uxtb	r3, r3
 447 013a 1370     		strb	r3, [r2]
 448              	.LBE3:
 417:Generated_Source\PSoC4/cyfitter_cfg.c **** 	}
 418:Generated_Source\PSoC4/cyfitter_cfg.c **** 
 419:Generated_Source\PSoC4/cyfitter_cfg.c **** 	/* Perform second pass device configuration. These items must be configured in specific order afte
 420:Generated_Source\PSoC4/cyfitter_cfg.c **** 	/* IOPINS0_0 Starting address: CYDEV_PRT0_BASE */
 421:Generated_Source\PSoC4/cyfitter_cfg.c **** 	CY_SET_REG32((void *)(CYDEV_PRT0_BASE), 0x00000020u);
 449              		.loc 1 421 0
 450 013c 2023     		movs	r3, #32
 451 013e 1E4A     		ldr	r2, .L21+48
 452 0140 1360     		str	r3, [r2]
 422:Generated_Source\PSoC4/cyfitter_cfg.c **** 	CY_SET_REG32((void *)(CYREG_PRT0_PC), 0x00271180u);
 453              		.loc 1 422 0
 454 0142 1E49     		ldr	r1, .L21+52
 455 0144 1E4A     		ldr	r2, .L21+56
 456 0146 1160     		str	r1, [r2]
 423:Generated_Source\PSoC4/cyfitter_cfg.c **** 	CY_SET_REG32((void *)(CYREG_PRT0_PC2), 0x00000020u);
 457              		.loc 1 423 0
 458 0148 1E4A     		ldr	r2, .L21+60
 459 014a 1360     		str	r3, [r2]
 424:Generated_Source\PSoC4/cyfitter_cfg.c **** 
 425:Generated_Source\PSoC4/cyfitter_cfg.c **** 	/* IOPINS0_1 Starting address: CYDEV_PRT1_BASE */
 426:Generated_Source\PSoC4/cyfitter_cfg.c **** 	CY_SET_REG32((void *)(CYDEV_PRT1_BASE), 0x0000003Eu);
 460              		.loc 1 426 0
 461 014c 1E33     		adds	r3, r3, #30
 462 014e 1E4A     		ldr	r2, .L21+64
 463 0150 1360     		str	r3, [r2]
 427:Generated_Source\PSoC4/cyfitter_cfg.c **** 	CY_SET_REG32((void *)(CYREG_PRT1_PC), 0x00180000u);
 464              		.loc 1 427 0
 465 0152 C021     		movs	r1, #192
 466 0154 4903     		lsls	r1, r1, #13
 467 0156 1D4A     		ldr	r2, .L21+68
 468 0158 1160     		str	r1, [r2]
 428:Generated_Source\PSoC4/cyfitter_cfg.c **** 	CY_SET_REG32((void *)(CYREG_PRT1_PC2), 0x0000003Eu);
 469              		.loc 1 428 0
 470 015a 1D4A     		ldr	r2, .L21+72
 471 015c 1360     		str	r3, [r2]
 429:Generated_Source\PSoC4/cyfitter_cfg.c **** 
 430:Generated_Source\PSoC4/cyfitter_cfg.c **** 	/* IOPINS0_2 Starting address: CYDEV_PRT2_BASE */
ARM GAS  C:\Users\Sil\AppData\Local\Temp\ccslyIQA.s 			page 17


 431:Generated_Source\PSoC4/cyfitter_cfg.c **** 	CY_SET_REG32((void *)(CYREG_PRT2_PC), 0x00000001u);
 472              		.loc 1 431 0
 473 015e 0122     		movs	r2, #1
 474 0160 1C4B     		ldr	r3, .L21+76
 475 0162 1A60     		str	r2, [r3]
 432:Generated_Source\PSoC4/cyfitter_cfg.c **** 
 433:Generated_Source\PSoC4/cyfitter_cfg.c **** 	/* IOPINS0_3 Starting address: CYDEV_PRT3_BASE */
 434:Generated_Source\PSoC4/cyfitter_cfg.c **** 	CY_SET_REG32((void *)(CYREG_PRT3_PC), 0x00000D80u);
 476              		.loc 1 434 0
 477 0164 D822     		movs	r2, #216
 478 0166 1201     		lsls	r2, r2, #4
 479 0168 1B4B     		ldr	r3, .L21+80
 480 016a 1A60     		str	r2, [r3]
 435:Generated_Source\PSoC4/cyfitter_cfg.c **** 
 436:Generated_Source\PSoC4/cyfitter_cfg.c **** 	/* IOPINS0_4 Starting address: CYDEV_PRT4_BASE */
 437:Generated_Source\PSoC4/cyfitter_cfg.c **** 	CY_SET_REG32((void *)(CYDEV_PRT4_BASE), 0x00000006u);
 481              		.loc 1 437 0
 482 016c 0623     		movs	r3, #6
 483 016e 1B4A     		ldr	r2, .L21+84
 484 0170 1360     		str	r3, [r2]
 438:Generated_Source\PSoC4/cyfitter_cfg.c **** 	CY_SET_REG32((void *)(CYREG_PRT4_PC), 0x00000030u);
 485              		.loc 1 438 0
 486 0172 3021     		movs	r1, #48
 487 0174 1A4A     		ldr	r2, .L21+88
 488 0176 1160     		str	r1, [r2]
 439:Generated_Source\PSoC4/cyfitter_cfg.c **** 	CY_SET_REG32((void *)(CYREG_PRT4_PC2), 0x00000006u);
 489              		.loc 1 439 0
 490 0178 1A4A     		ldr	r2, .L21+92
 491 017a 1360     		str	r3, [r2]
 440:Generated_Source\PSoC4/cyfitter_cfg.c **** 
 441:Generated_Source\PSoC4/cyfitter_cfg.c **** 
 442:Generated_Source\PSoC4/cyfitter_cfg.c **** 	/* Setup clocks based on selections from Clock DWR */
 443:Generated_Source\PSoC4/cyfitter_cfg.c **** 	ClockSetup();
 492              		.loc 1 443 0
 493 017c FFF740FF 		bl	ClockSetup
 494              	.LVL34:
 444:Generated_Source\PSoC4/cyfitter_cfg.c **** 
 445:Generated_Source\PSoC4/cyfitter_cfg.c **** 	/* Perform basic analog initialization to defaults */
 446:Generated_Source\PSoC4/cyfitter_cfg.c **** 	AnalogSetDefault();
 495              		.loc 1 446 0
 496 0180 FFF7FEFF 		bl	AnalogSetDefault
 497              	.LVL35:
 447:Generated_Source\PSoC4/cyfitter_cfg.c **** 
 448:Generated_Source\PSoC4/cyfitter_cfg.c **** }
 498              		.loc 1 448 0
 499              		@ sp needed
 500              	.LVL36:
 501 0184 10BD     		pop	{r4, pc}
 502              	.L22:
 503 0186 C046     		.align	2
 504              	.L21:
 505 0188 00000000 		.word	.LANCHOR0
 506 018c 0000FFFF 		.word	-65536
 507 0190 00000140 		.word	1073807360
 508 0194 0C000140 		.word	1073807372
 509 0198 10000140 		.word	1073807376
 510 019c 00500F40 		.word	1074745344
ARM GAS  C:\Users\Sil\AppData\Local\Temp\ccslyIQA.s 			page 18


 511 01a0 10500F40 		.word	1074745360
 512 01a4 20500F40 		.word	1074745376
 513 01a8 30500F40 		.word	1074745392
 514 01ac 38500F40 		.word	1074745400
 515 01b0 01700F40 		.word	1074753537
 516 01b4 00700F40 		.word	1074753536
 517 01b8 00000440 		.word	1074003968
 518 01bc 80112700 		.word	2560384
 519 01c0 08000440 		.word	1074003976
 520 01c4 18000440 		.word	1074003992
 521 01c8 00010440 		.word	1074004224
 522 01cc 08010440 		.word	1074004232
 523 01d0 18010440 		.word	1074004248
 524 01d4 08020440 		.word	1074004488
 525 01d8 08030440 		.word	1074004744
 526 01dc 00040440 		.word	1074004992
 527 01e0 08040440 		.word	1074005000
 528 01e4 18040440 		.word	1074005016
 529              		.cfi_endproc
 530              	.LFE7:
 531              		.size	cyfitter_cfg, .-cyfitter_cfg
 532              		.section	.rodata
 533              		.align	2
 534              		.set	.LANCHOR0,. + 0
 535              		.type	cfg_memset_list.4876, %object
 536              		.size	cfg_memset_list.4876, 12
 537              	cfg_memset_list.4876:
 538 0000 00300F40 		.word	1074737152
 539 0004 0004     		.short	1024
 540 0006 00400F40 		.4byte	1074741248
 541 000a 0004     		.short	1024
 542              		.type	cy_cfg_data_table.4871, %object
 543              		.size	cy_cfg_data_table.4871, 30
 544              	cy_cfg_data_table.4871:
 545 000c 38       		.byte	56
 546 000d 80       		.byte	-128
 547 000e 3E       		.byte	62
 548 000f 40       		.byte	64
 549 0010 58       		.byte	88
 550 0011 04       		.byte	4
 551 0012 5F       		.byte	95
 552 0013 01       		.byte	1
 553 0014 18       		.byte	24
 554 0015 01       		.byte	1
 555 0016 B4       		.byte	-76
 556 0017 01       		.byte	1
 557 0018 6C       		.byte	108
 558 0019 40       		.byte	64
 559 001a 70       		.byte	112
 560 001b 08       		.byte	8
 561 001c DC       		.byte	-36
 562 001d 03       		.byte	3
 563 001e 61       		.byte	97
 564 001f 02       		.byte	2
 565 0020 A1       		.byte	-95
 566 0021 02       		.byte	2
 567 0022 B4       		.byte	-76
ARM GAS  C:\Users\Sil\AppData\Local\Temp\ccslyIQA.s 			page 19


 568 0023 48       		.byte	72
 569 0024 B5       		.byte	-75
 570 0025 02       		.byte	2
 571 0026 D8       		.byte	-40
 572 0027 02       		.byte	2
 573 0028 EC       		.byte	-20
 574 0029 08       		.byte	8
 575 002a 0000     		.space	2
 576              		.type	cy_cfg_addr_table.4870, %object
 577              		.size	cy_cfg_addr_table.4870, 20
 578              	cy_cfg_addr_table.4870:
 579 002c 04300F40 		.word	1074737156
 580 0030 01310F40 		.word	1074737409
 581 0034 01330F40 		.word	1074737921
 582 0038 03420F40 		.word	1074741763
 583 003c 06430F40 		.word	1074742022
 584              		.text
 585              	.Letext0:
 586              		.file 2 "c:\\program files (x86)\\cypress\\psoc creator\\4.2\\psoc creator\\import\\gnu\\arm\\5.4.
 587              		.file 3 "Generated_Source\\PSoC4\\cytypes.h"
 588              		.file 4 "Generated_Source\\PSoC4\\CyLib.h"
